:020000040800F2
:100000000050002079050008C1050008E52F000810
:10001000EF2F0008F92F000803300008000000004F
:10002000000000000000000000000000C105000802
:10003000C105000800000000C1050008AD3200083D
:10004000C1050008C1050008C1050008C105000878
:10005000C1050008C105000861130008BD130008B0
:10006000C1050008D913000805140008C1050008DF
:10007000C1050008C1050008C1050008C105000848
:10008000C1050008C10500080D130008C1050008DE
:10009000C1050008C1050008C1050008C105000828
:1000A000C1050008C1050008C1050008C105000818
:1000B000D11400086914000891140008C105000853
:1000C000C1050008C1050008C1050008C1050008F8
:1000D000C105000881270008C1050008C105000806
:1000E00029140008C1050008C1050008000000002F
:1000F0000000000000000000000000000000000000
:0C01000000000000000000005FF808F1A3
:10010C0010F8012B11F8013B012A28BF9A42F7D0B5
:10011C00D01A704721F0604121F07F010143014B5F
:10012C009960704700ED00E04FF0FF3070474FF4DE
:10013C0000534B6000207047022804D9034B09225E
:10014C001A60002070470120704700BF3C0300205C
:10015C000020704708B503460D4A12684AB10C4A94
:10016C001068EFF308820344934206D8084A1360E0
:10017C0008BD074A07491160F1E719220649022018
:10018C0002F0D6FB054B0C221A604FF0FF30EFE764
:10019C007800002040030020884100083C03002028
:1001AC004FF0FF307047704782B0434B4FF48032B2
:1001BC001A600023ADF806303F4B1B6813F4003F68
:1001CC000AD1BDF806309BB25A1C92B2ADF806208B
:1001DC0041F288329342EFD1374B1B6813F4003F46
:1001EC0062D0364B11221A60A3F58053344A5A6000
:1001FC001A6842F080721A600023ADF806302E4B5C
:10020C001B6813F0007F0AD1BDF806309BB25A1C54
:10021C0092B2ADF8062041F288329342EFD1264BD0
:10022C001B6813F0007F42D0234A536843F002034B
:10023C0053600023ADF806301F4B5B6803F00C03D2
:10024C00082B0AD0BDF806309BB25A1C92B2ADF8FE
:10025C00062041F288329342EED1174B5B6803F0D3
:10026C000C03082B25D1144A536A43F00103536243
:10027C000023ADF80630104B5B6A13F0020F0AD165
:10028C00BDF806309BB25A1C92B2ADF8062041F272
:10029C0088329342EFD1084B5B6A13F0020F01D006
:1002AC00002002E0042000E0012002B07047022090
:1002BC00FBE70320F9E700BF0010024000200240DA
:1002CC0000C41D002DE9F84FFFF76EFF944B18701A
:1002DC001B789BB1934B44F205029A61A3F58433CE
:1002EC00914A5A6003F5405345221A8100221A8222
:1002FC009A8243F22C429A81BDE8F88F894B8B4A43
:10030C00DA6144F21D629A61A3F588334FF00072F2
:10031C005A6003F50063864A5A60864A1A604FF4A5
:10032C008962DA6003F58063834A5A60834A1A60F3
:10033C0041F21102DA60824A4FF0087353600023D5
:10034C0013604FF48041D16002F5205240F27121CC
:10035C0011811382938243F23C419181794A30217D
:10036C0082F8251320215160774C072222614FF42B
:10037C00E041A160A26842F40042A260A26842F08F
:10038C000202A260626842F4B0626260A363A36876
:10039C0043F00103A3606D4D6D4B2B61A960AB68FD
:1003AC0043F40043AB60AB6843F00203AB606B6893
:1003BC0043F4B0636B60674BAB63AB6843F0010312
:1003CC00AB60012002F02EFDAB6843F00403AB6080
:1003DC00A36843F00403A3605B4B9B6813F0040F0A
:1003EC00FAD15A4B9B6813F0040FF5D10A2002F096
:1003FC0019FD554A936843F40013936002F580622B
:10040C00936843F4001393604E4C202384F812330A
:10041C004FF480232360504B01275F6100221A6147
:10042C00DA609F6003F5806341F21B021A609A60E8
:10043C001922DA604FF6FF7AC3F814A04023236028
:10044C004FF4007323604FF4806323604FF4807388
:10045C0063604FF080454FF0470BA5F828B04FF084
:10046C000809A5F800906423AB85AB8A3B43AB82AB
:10047C00384602F0D7FC2B8A9BB223F001039BB2C7
:10048C002B82AF814FF0100884F81C834FF08053FF
:10049C002360324EA6F828B0A6F80090A6F82CA03F
:1004AC00B38A3B43B382384602F0BCFC338A9BB21E
:1004BC0023F001039BB23382B78184F81D834FF084
:1004CC000053236006F5806613233385A6F800904D
:1004DC0048F6A043B385B38A3B43B382384602F057
:1004EC00A1FC338A9BB223F001039BB23382B78108
:1004FC0084F81E8325601A4BB3229A8348221A84EF
:10050C009A8842F024029A801A883A431A80154B32
:10051C00154A5A609A6007221A6062B6ECE600BF70
:10052C00C000002000100240B008800807004010F6
:10053C00B22882088080083262FF38330808022211
:10054C000010014000E100E00024014000280140BF
:10055C0000800338009414000000014000040040A7
:10056C000058004010E000E03F190100002103E0BA
:10057C000B4B5B58435004310A480B4B42189A42C0
:10058C00F6D30A4A02E0002342F8043B084B9A4295
:10059C00F9D3FFF797FE02F0BDFE02F0C3FD7047E2
:1005AC008C5100080000002078000020780000200A
:1005BC0040030020FEE708B5012002F06BFE01F0BD
:1005CC0029F908BD10B5022002F064FE01F04CF9C7
:1005DC00044648B101F02CF818B1054B1B78002BE0
:1005EC00F8D0034B1B780BB9204610BD0024FBE759
:1005FC00A7000020F8B510B901242046F8BD044628
:10060C00032002F047FE2DE00021084601F0B0F96E
:10061C00F3E702254DF2D86002F026FC00210846D3
:10062C0001F0A6F9234B1B788BB941F2883002F00C
:10063C001BFC204B1B7853B90134042C07DC2946D6
:10064C00022001F095F9012DE3D00125E2E743F6F4
:10065C00982001F05FFE04460028CED0154B1B7885
:10066C00344623BB661EF6B2D4B10221084601F013
:10067C007FF90A21012002F0E1FA04460028C3D0D8
:10068C0041F2883002F0F0FB0021084601F070F9CD
:10069C00084B1B7803F0FF073BB900240125CCE77E
:1006AC00044B1C7884F00104A7E70024A5E73C4622
:1006BC00A3E700BFA700002038B505460124AC42D3
:1006CC0032D80121204601F053F941F2883002F072
:1006DC00CBFB1A4B1B781BBB0021084601F048F9D9
:1006EC0040F6B83002F0C0FB144B1B78E3B9022182
:1006FC00204601F03DF941F2883002F0B5FB0F4B7A
:10070C001B78B3B90021084601F032F940F6B83035
:10071C0002F0AAFB094B1B7833B90134E4B2CEE7E3
:10072C000021084601F024F9044B187880F00100F0
:10073C0038BD0021084601F01BF9F5E7A7000020A1
:10074C0070B5064600240134E4B20121204601F0C4
:10075C000FF9054698B340F6B83002F085FB1B4BF9
:10076C001B780BB9B442EED3184B1B7803F0FF0582
:10077C0003BB174802F078FB144B1B780BBB013CF6
:10078C00E4B20121204601F0F3F80546B8B164202B
:10079C0002F06AFB0D4B1B780BB9012CEFD8002132
:1007AC00084601F0E5F8054648B1084B1D7885F080
:1007BC00010504E00021084601F0DAF8002528467E
:1007CC0070BD0021084601F0D3F8F8E7A70000201F
:1007DC00C0D4010038B50546042002F05BFD01F0E1
:1007EC000DFD044630B13DB90C4802F027FB01F079
:1007FC0039FD0446204638BD2846FFF75DFF044608
:10080C0040B12846FFF79CFF0028F0D001F02AFDEC
:10081C000024EFE701F026FDECE700BF20BF02004B
:10082C0070B505460E46144600F0BCFE40B904F106
:10083C000A01C9B2304602F001FA0446002849D038
:10084C00264B1978284601F093F80446002841D02D
:10085C00234B1868234B1B68C31A4DF2D862934282
:10086C002FD8204B1B68C01A02F0FEFA1E4B1B78C7
:10087C0003F0FF046BBB1A4B1A681A4B1B689A42A5
:10088C0028D30021084601F073F8054620B3164B17
:10089C001B78FBB9124B1B68124A12689A1A41F268
:1008AC0088318A4210D80F4A1068181A02F0DCFA04
:1008BC000A4B1B78012B0AD00122084B1A702C46CC
:1008CC0008E04DF2D860CFE741F28830EEE7022223
:1008DC00F3E70024204670BD0446FBE7000000202F
:1008EC00C4000020B4000020A70000202DE9F04136
:1008FC00804617461D469DF818602C4B1A684EF61C
:10090C00602303FB01212A4B19603146284602F073
:10091C0095F9044610B92046BDE8F081404601F037
:10092C0047FE04460028F6D0224B1B7803F0FF0844
:10093C00BBB91F4B1B681D4A12689A1A41F28831C9
:10094C008A4210D9194A12689B1A1B4A93420AD838
:10095C00324629463846FFF763FF0028E4D1A0460B
:10096C0001E04FF00008002001F022FE00B9A04683
:10097C000021084600F0FCFF00B9A04643F6982081
:10098C0001F0C8FC00B1444601F034FE14384FF4B9
:10099C007A6303FB00F002F067FA2CB9054B1B7865
:1009AC00002BB8D10124B6E70024B4E7B400002032
:1009BC00C4000020A7000020FEFFFF7F38B50121F6
:1009CC00084600F0D5FF364802F04EFA354B1B783E
:1009DC0013B10024204638BD03F0FF040021084663
:1009EC0000F0C6FF41F2883002F03EFA2D4B1B7826
:1009FC0003F0FF05002BEDD10221012000F0B8FF20
:100A0C00274802F031FA274B1B7803F0FF040BB197
:100A1C002C46DFE70021084600F0AAFF41F288309F
:100A2C0002F022FA1F4B1B7803F0FF05002BD1D1EB
:100A3C000121142000F09CFF1B4802F015FA194B01
:100A4C001B7803F0FF040BB12C46C3E700210846CA
:100A5C0000F08EFF41F2883002F006FA114B1B7841
:100A6C0003F0FF05002BB5D10221142000F080FF0C
:100A7C000D4802F0F9F90B4B1B7803F0FF040BB196
:100A8C002C46A7E70021084600F072FF41F288309F
:100A9C0002F0EAF9034B1B78002B9BD1012499E758
:100AAC0040771B00A7000020E093040010B582B033
:100ABC0002AB03E90300FFF781FF0446002108465F
:100ACC0000F056FF204602B010BD000000B583B008
:100ADC0002AB03E90300124802F062FCFFF76BFD66
:100AEC00034618B9184603B05DF804FB0D4802F034
:100AFC0057FC0320FFF77EFD03460028F2D00A487E
:100B0C0002F04EFC1420FFF765FE03460028E9D0E6
:100B1C00064802F045FCFFF755FD0346E2E700BF2F
:100B2C00A4410008B0410008BC410008C8410008BD
:100B3C0000B583B002AB03E90300FFF73CFD0346AD
:100B4C0018B9184603B05DF804FB0320FFF752FDFB
:100B5C0003460028F5D00220FFF73CFE0346002890
:100B6C00EFD0FFF72FFD0346EBE700B583B002ABE8
:100B7C0003E90300FFF71FFD034618B9184603B03D
:100B8C005DF804FB43F6982001F0C4FB03460028F3
:100B9C00F4D0FFF717FD0346F0E700B583B002ABC6
:100BAC0003E90300FFF707FD034618B9184603B025
:100BBC005DF804FB022001F03DFF47F2305001F0DC
:100BCC00A9FB03460028F1D0022001F05DFFFFF7DE
:100BDC00F9FC0346EAE700B583B002AB03E9030076
:100BEC00FFF7E9FC034618B9184603B05DF804FB9F
:100BFC001420FFF7EFFD03460028F5D0FFF7E2FCC9
:100C0C000346F1E700B583B002AB03E90300FFF73D
:100C1C00D2FC034618B9184603B05DF804FB43F642
:100C2C00982001F077FB03460028F4D00520FFF74D
:100C3C00D1FD03460028EED0FFF7C4FC0346EAE7DB
:100C4C0030B583B002AB03E90300092002F022FBAC
:100C5C0043F6982001F03AFB00F024FD044610B94D
:100C6C00204603B030BD41F2883002F0E7F800F0C6
:100C7C00D1FE04460028F3D0184B1B7803F0FF0577
:100C8C000BB10024ECE741F2883002F0D7F801F008
:100C9C0013FF04460028E3D041F2883002F0CEF86E
:100CAC0001F07EFB04460028DAD001F001FA04467C
:100CBC000028D5D0094B1B780BB12C46D0E741F25C
:100CCC00883002F0BBF800F059FD04460028C7D06C
:100CDC0002F0E4F8024802F063FBC1E7A700002031
:100CEC00D44100082DE9F04788B004AB83E8030039
:100CFC009DF81040631EDBB20A2B22D8631E474AB4
:100D0C0052F8233007939DF81150FF2D21D0502D10
:100D1C0022D89DF81280B8F1FF0F22D09DF81390C5
:100D2C00B9F1FF0F20D09DF81460FF2E1FD0142EA8
:100D3C0020D89DF81570FF2F21D0642F20D964275F
:100D4C001EE0374802F02CFB0023184608B0BDE823
:100D5C00F0879DF81C50DAE7324802F021FB0023A3
:100D6C00F3E79DF81D80D9E79DF81E90DBE79DF811
:100D7C001F60DCE72C4802F013FB0023E5E7032798
:100D8C009DF816A0BAF1FF0F34D0294642463346DF
:100D9C003846D446012C30D0DFF894E0CDF808E08A
:100DAC00CDF804C00090214802F0FAFAFFF703FCDA
:100DBC0003460028C9D0012C22D0062002F06AFA82
:100DCC00009702234A4641462846FFF78FFD03460B
:100DDC000028BAD05046FFF70DFC03460028B4D0CB
:100DEC003046FFF7F7FC03460028AED0FFF7EAFBCE
:100DFC000346AAE74FF0030AC7E7DFF838E0CDE770
:100E0C00052002F047FA009700234A461421284691
:100E1C00FFF76CFD03460028CFD196E790420008FF
:100E2C00F441000808420008144200082842000857
:100E3C00EC410008E441000810B582B002AB03E9B4
:100E4C0003009DF80110FF290ED0502907D89DF8FA
:100E5C000540FF2C0AD0642C09D9642407E02648ED
:100E6C0002F09EFA00230AE04621F0E732242246E3
:100E7C00224802F095FAFFF79EFB0346E8B91846A4
:100E8C0002B010BD01F0B6FB01461D4802F088FA15
:100E9C0042F2107001F0D2FF01F0ACFB4528F1D901
:100EAC00002001F085FBA8B143F6982001F032FA3E
:100EBC0080B147F2305001F0C1FF124B1B784BB997
:100ECC002146012001F0BAFE20B1462001F070FB52
:100EDC000028E1D1002001F06BFB03460028CED0A6
:100EEC0043F6982001F016FA03460028C7D0FFF706
:100EFC0069FB0346C3E700BF08420008BC42000878
:100F0C00EC420008A7000020024B4FF480721A61DB
:100F1C00704700BF00080140024B4FF080721A610D
:100F2C00704700BF0008014008B5064B4FF48052D3
:100F3C001A6103F580634FF480021A61642001F09A
:100F4C007DFF08BD0008014008B5064B4FF08052EC
:100F5C001A6103F5806340221A61642001F06EFF70
:100F6C0008BD00BF0008014008B5064B4FF0805289
:100F7C001A6103F580634FF480021A61642001F05A
:100F8C005DFF08BD000801400D4BDB6813F4805F6A
:100F9C0004D00C4BDB6813F0400F0BD0084BDB6814
:100FAC0013F4805F08D1074BDB6813F0400F05D1B9
:100FBC0000207047012070470020704702207047C6
:100FCC0000080140000C014008B5034B80221A6157
:100FDC0000F08AFA08BD00BF0008014008B5034BB9
:100FEC004FF400021A6100F087FA08BD00080140B6
:100FFC00674A938A9BB223F480639BB293821388D3
:10100C0043F48073138003E0624B4AF6AA221A6001
:10101C005F4B9B8A40F201421A42F5D05C4B9B8A93
:10102C0013F4806F04D15A4B9A8AA0221A820AE0D8
:10103C00574A138843F40073138000207047554BB4
:10104C004AF6AA221A60524B9B8A40F202421A427A
:10105C00F5D04F4B9B8A13F4806F05D14C4B9A8A79
:10106C001A8B00221A820AE0494A138843F400734F
:10107C00138000207047474B4AF6AA221A60444B53
:10108C009B8A03F49063002BF5D0414B9B8A13F49D
:10109C00806F13D13E4B1A8842F400721A801A8862
:1010AC0042F480721A803A4B9B8A40F201421A42F7
:1010BC000BD1384B4AF6AA221A60F4E7344A13884B
:1010CC0043F40073138000207047314B9B8A13F458
:1010DC00806F04D12E4B9A8AA1221A820AE02C4AE4
:1010EC00138843F40073138000207047294B4AF691
:1010FC00AA221A60264B9B8A40F202421A42F5D071
:10110C00234B9B8A13F4806F03D1214B9A8A1B8B40
:10111C0022E01F4A138843F40073138000207047A9
:10112C001B4A13889BB223F480639BB2138003E0A9
:10113C00184B4AF6AA221A60154B9B8A03F4886353
:10114C00002BF5D0124B9B8A13F4806F11D1104BEE
:10115C001B8A03700139013091B10E4B4AF6AA2259
:10116C001A600129DCD00A4A138843F48063138087
:10117C00E2E7074A138843F400731380002070479A
:10118C00034A138843F4007313800120704700BF97
:10119C00005800400030004070B506460D46002453
:1011AC0002E0052001F04AFE29463046FFF720FFF9
:1011BC0018B90134E4B2092CF3D90A2C01D001205E
:1011CC0070BD0020FCE70000384A938A9BB223F4E0
:1011DC0080639BB29382138843F48073138003E083
:1011EC00334B4AF6AA221A60304B9B8A40F20142DA
:1011FC001A42F5D02D4B9B8A13F4806F04D12B4BE4
:10120C009A8AA0221A820AE0284A138843F40073AF
:10121C00138000207047264B4AF6AA221A60234BF3
:10122C009B8A40F202421A42F5D0204B9B8A13F45F
:10123C00806F06D110B41D4B9A8A1A8B000118824C
:10124C000AE01A4A138843F4007313800020704795
:10125C00174B4AF6AA221A60144B9B8A13F0800F84
:10126C00F6D000200EE0124B4AF6AA221A600F4B61
:10127C009B8A40F204421A42F5D00C4B9B8A0130F7
:10128C00C0B221460F2804D84C1C0A78074B1A828E
:10129C00EDE7064B1A8842F400721A80988A800A8D
:1012AC0080F0010000F0010010BC704700580040B5
:1012BC0000300040F8B506460F46002502E00A2C27
:1012CC001BD001353B46002F12DBB5EB231F12DA86
:1012DC0000240A2001F0B2FD06EB0511E8B2FFF77D
:1012EC0073FF0028EBD10134E4B2092CF1D9E6E705
:1012FC0007F10F03E9E70120F8BD0020FCE700002F
:10130C0010B5114B1B6813F0040F05D10F4B1B6864
:10131C0013F0040F0AD110BD0B4CE06B80B201F03E
:10132C00B9F9236823F004032360EFE7074CE36B60
:10133C009BB2074A1380206C80B200F00DFD23682D
:10134C0023F004032360E6E7002401400028014059
:10135C00D800002008B5134B5A6942F001025A61BB
:10136C005B69114B9B6813F0010F0ED10F4B186882
:10137C0001F0B4FF431E012B0CD90B280ED90D28FC
:10138C0007D8012000F032FD03E001F09BFF074B72
:10139C00186008BD022000F029FDFAE7032000F0D8
:1013AC0025FDF6E700040140000C01407C00002004
:1013BC0008B5054B5A6942F002025A615B69242058
:1013CC0001F0F4FD08BD00BF0004014008B5074B57
:1013DC005A6942F008025A615B69054B01221A7086
:1013EC0001F070FF034B186008BD00BF0004014002
:1013FC00A4000020A000002008B5064A536943F061
:10140C0010035361044B9868C0F3001000F01CF9F2
:10141C0008BD00BF000401400008014038B50C4B6A
:10142C005A6942F480525A615B690A4D286801F08E
:10143C0055FF094C206001F045FF28602368082BFC
:10144C0002DD23680B2B00DD38BD00F081FFFBE7CC
:10145C00000401408000002004000020074A138A89
:10146C009BB223F001039BB21382054B00221A702E
:10147C00024B1B8A13F0010FFAD170470004004095
:10148C009400002008B50E4A138A9BB223F0010386
:10149C009BB21382FFF798FD4FF0804213889BB2EA
:1014AC0023F001039BB2138000239384138843F031
:1014BC0001031380024B1B8A13F0010FFAD108BDF4
:1014CC000008004008B54FF08042138A9BB223F00D
:1014DC0001039BB21382FFF781FD4FF080431B8AFF
:1014EC0013F0010FF9D108BD024B4FF480421A6181
:1014FC00704700BF00100140024B4FF080421A6150
:10150C00704700BF00100140024BD868C0F3803018
:10151C00704700BF00100140024B4FF400521A619B
:10152C00704700BF00100140024B4FF000521A618F
:10153C00704700BF00100140024BD868C0F3403028
:10154C00704700BF00100140024B4FF400621A615B
:10155C00704700BF00080140024B4FF000621A6157
:10156C00704700BF00080140024B4FF480421A61E3
:10157C00704700BF000C0140024B4FF080421A61D3
:10158C00704700BF000C0140014B80221A6170476C
:10159C00000C0140024B4FF400021A61704700BF6F
:1015AC00000C0140024B9868C0F38000704700BFEC
:1015BC00000C0140024B9868C0F34000704700BF1C
:1015CC0000080140024B4FF020421A61704700BFE7
:1015DC00000C0140134B1B785BB1124B1B78DBB238
:1015EC00012B04D0104B4FF000421A6105E000288B
:1015FC00F8D00D4B4FF400421A610C4B1B785BB1C9
:10160C000A4B1B78DBB2012B04D0074B4FF0005276
:10161C001A6170470028F8D0034B4FF400521A613E
:10162C00704700BF08000020000C0140090000209A
:10163C00014B1878704700BF84000020014B00223A
:10164C001A7070478400002010B504460C4B1868C3
:10165C0001F044FE0938022806D9FFF7EFFF01F02C
:10166C0031FE074B186010BD064B01221A7000F0BA
:10167C0021FB00F0CDFF2046FFF7ACFFEFE700BFEA
:10168C00880000208400002008B50B21044B18684A
:10169C0001F02AFE00B108BDFFF7D0FFFBE700BF49
:1016AC008800002010B582B02F4801F079FEFFF7BA
:1016BC0033FC01F007FE019000F0C2FB022806D0BB
:1016CC004FF47A71019801F00FFE0028F4D100F06C
:1016DC00B7FB022805D0502001F068FC002002B0B6
:1016EC0010BD02AC54F8040D01F0F8FD01461F4882
:1016FC0001F056FEFFF708FC204601F0E9FD00F072
:10170C009FFB012806D04FF47A71019801F0ECFD93
:10171C000028F4D100F094FB012804D0512001F0F2
:10172C0045FC0020DBE702AC54F8040D01F0D6FDBB
:10173C0001460F4801F034FE204601F0C9FDFFF7C9
:10174C0077FF18B90B4B1B78002BF8D0094B1B7883
:10175C000BB10020C3E7019801F0C0FD014606481B
:10176C0001F01EFE0120BAE7F442000818430008FD
:10177C003C430008A70000207043000838B52048FF
:10178C0001F00EFEFFF754FF0546C0B1FFF7C4FB96
:10179C0001F098FD044600F053FB022806D040F6F9
:1017AC00B831204601F0A0FD0028F4D100F048FB30
:1017BC00022809D0522001F0F9FB002502E0114863
:1017CC0001F0EEFD284638BD204601F087FD0146AC
:1017DC000D4801F0E5FDFFF72BFF18B10B4B1B7803
:1017EC00002BF8D0094B1B780BB10025EAE72046FB
:1017FC0001F074FD0146064801F0D2FDE2E700BF9E
:10180C0098430008BC430008CC430008A700002004
:10181C00F843000810B5FFF777FB01F053FD0446C1
:10182C0000F00EFB012806D04FF47A71204601F02F
:10183C005BFD0028F4D100F003FB01280BD1FFF76E
:10184C00F7FE18B9074B1B78002BF8D0054B1B780B
:10185C0033B9012003E0512001F0A8FB002010BD9A
:10186C000020FCE7A700002038B5FFF79BFEC0B9AD
:10187C000546FFF751FB01F025FD044600F0E0FAA8
:10188C00022806D04FF47A71204601F02DFD002875
:10189C00F4D100F0D5FA022809D0522001F086FBD1
:1018AC0003E0532001F082FB0025284638BD0125BA
:1018BC00FBE7000038B5044600232A4A13802A4A65
:1018CC001370FFF761FBA04247D00546F4B1012C21
:1018DC0040D0FFF739FB01F0F5FC0446234B1B7895
:1018EC00DBB2022B06D04FF4FA61204601F0FCFC6F
:1018FC000028F3D11D4B1B78DBB2022B2FD04020DC
:10190C0001F054FBFFF730FB002027E0FFF72CFB26
:10191C0001F0D8FC0446154B1B78DBB2022B06D128
:10192C004FF4FA61204601F0DFFC0028F3D10F4B95
:10193C001B78DBB2022B01D001200FE0012D04D06B
:10194C00422001F033FB002008E0412001F02EFB87
:10195C00002003E0FFF7E8FABDE7012038BD0120C5
:10196C00FCE700BF8E000020900000208C000020BF
:10197C0038B504460D46224B00221A70FFF704FBC3
:10198C000CB1A84200D068B935B12CB170B31D4B65
:10199C001C701B4B01221A701B4B1B7883F001032C
:1019AC00184638BD0023164A1370184A1380154A7E
:1019BC001370142001F042FA01F084FC0446144B1D
:1019CC001B7833B142F21071204601F08DFC0028D7
:1019DC00F5D10F4B1B7823B1452001F0E7FA00231A
:1019EC00DEE70020FFF766FF0346D9E701F000FCB5
:1019FC002846FFF75FFF03460028C8D1D0E700BF99
:101A0C009000002095000020A70000208E000020F0
:101A1C009400002070B582B0964801F0C1FC01F032
:101A2C0051FC0190944B1B78DBB2012B06D04FF488
:101A3C007A71019801F058FC0028F3D18E4B1B7879
:101A4C00DBB2012B06D08D4801F0AAFC00252846FC
:101A5C0002B070BD8A4801F0A3FC0023894A1370C0
:101A6C00894A13800B2001F0E9F9FFF76DFA01A800
:101A7C0001F02EFC804B1B78DBB2022B06D04FF40E
:101A8C007A71019801F030FC0028F3D17A4B1B7865
:101A9C00DBB2022B06D0402001F088FAFFF764FA83
:101AAC000025D4E702AC54F8040D01F017FC00F14A
:101ABC006401764801F074FC204601F009FC002416
:101ACC00734B1B787BB9019801F008FC43F6972304
:101ADC00984208D86F4B1B889BB2A342F0D96D4B30
:101AEC001C88A4B2ECE76A4B1B7803F0FF054BB9DA
:101AFC0004F10A02684BA3F803202146674801F061
:101B0C004FFC0BE0FFF730FA0025A0E75E4A138884
:101B1C0001339BB21380322001F090F9604B1B789B
:101B2C0043B9594B1B8813F4004F03D1584B1B7806
:101B3C00002BEBD0564B1B7833BB534B1B8813F449
:101B4C00004F15D1504B1B889BB2B3F5C87F0DD3FA
:101B5C004D4B1B88A3F5C8739BB24F4AA2F80130BA
:101B6C00494B19884F4801F01BFC0DE00023F4E7AA
:101B7C00432001F01BFA07E0434A1388013B9BB258
:101B8C001380022001F05AF93F4B1B889BB2002BAB
:101B9C00F2D1454801F004FCFFF7E6F901A801F089
:101BAC0097FB354B1B78DBB2012B05D0019801F06C
:101BBC0095FBB0F57A7FF4D32F4B1B78DBB2012B5E
:101BCC0003D0412001F0F2F941E702AC54F8040DC6
:101BDC0001F084FB00F10B01344801F0E1FB012121
:101BEC000A20FFF7C5FE204601F072FB2C4B1B7838
:101BFC00DBB2092B09D8264B1B7833B943F6982155
:101C0C00019801F071FB0028F0D1254B1B78DBB259
:101C1C00092B09D902AC54F8040D01F05FFB064600
:101C2C00204601F055FB09E0442001F0BFF90021EA
:101C3C000846FFF79DFE0AE7194B1B78144B1B78DF
:101C4C0033B942F21071019801F04EFB0028F3D128
:101C5C000F4B1B784BB900210846FFF789FE314624
:101C6C00134801F09DFB0125F1E600210846FFF722
:101C7C007FFEECE6204400088C0000204444000861
:101C8C0064440008900000208E000020844400086A
:101C9C00A700002092000020C8000020BC440008CF
:101CAC0094000020EC440008004500082045000882
:101CBC005045000808B5FFF791F94FF080421388A2
:101CCC009BB223F001039BB213800021918402F597
:101CDC00006213889BB223F001039BB213809184A2
:101CEC00174B1B7803BB174B1B889BB2B3F5004FEC
:101CFC0003D9144B4FF400421A80124B1B889BB231
:101D0C008BB1104B1B885B090F4A32F813300F4A0A
:101D1C009385138843F001031380138A9BB223F03D
:101D2C0001039BB2138208BD094B1878094B197833
:101D3C0049B240B201F066FA80B2024B1880D2E789
:101D4C00900000208E00002078450008000800401C
:101D5C0094000020950000201F4B18801F4B1B780F
:101D6C00002B2CD11E4BB3F80330834227D81B4BCE
:101D7C0001221A701B4B1B8813F0010F0ED0194B4C
:101D8C009B8C9BB26BB1174B9B8C9AB24FF224433A
:101D9C0093FBF2F3DBB2144A137002E0124B0022F5
:101DAC001A70104A13889BB223F001039BB2138064
:101DBC0000239384138843F0010313807047074B6F
:101DCC001B783BB1064BB3F80330834202D9034B6B
:101DDC0000221A70704700BF920000209100002072
:101DEC00C80000200004004094000020014B187033
:101DFC00704700BF8C00002008B5074B1B7803B957
:101E0C0008BD0F21054B186801F06EFA0028F7D1B8
:101E1C00014B00221A70F3E78C0000207C0000209C
:101E2C0008B5FFF7DBF8FFF79FF80023024A1370A1
:101E3C00024A138008BD00BF900000208E000020D5
:101E4C00014B1878704700BF8C00002010B50D4B6B
:101E5C002022C3F884200C4C4FF0007323616420C3
:101E6C0000F0ECFF4FF44073236141F2883000F036
:101E7C00E5FF064B40F253721A8142F20C029A8132
:101E8C0010BD00BF00E100E0000C01400038014033
:101E9C0010B50C4C4FF000732361642000F0CEFFA2
:101EAC00094B236141F2883000F0C8FF074B40F228
:101EBC0071221A8143F23C429A81054B20225A60CE
:101ECC0010BD00BF000C01400002000300380140AF
:101EDC0000E100E0044B1B8813F0800FFAD080B2B5
:101EEC00014B9880704700BF00380140054B1B88A0
:101EFC0013F0200F03D0034B988840B270474FF07B
:101F0C00FF3070470038014038B5441C90F9000090
:101F1C0018B1FFF7DFFF2046F7E70D20FFF7DAFFD8
:101F2C000A20FFF7D7FF114B9B8801F0CBF900F685
:101F3C00B8350F4C07E0002323700D4838BD2846F8
:101F4C0001F0DCF978B90B4B4AF6AA221A60FFF7BC
:101F5C00CDFFB0F1FF3FF2D00D28ECD00A28EAD02B
:101F6C0020700134EBE70020E8E700BF00380140A7
:101F7C00DC0000200030004008B569B10B4688B188
:101F8C000B4A022111700B4A10800B4A138001F08E
:101F9C0099F90A4B186008BD054B00221A70FFF71F
:101FAC00ABFAF8E7024B01221A70FFF79DFAF2E741
:101FBC000A00002010010020200100201801002040
:101FCC0008B569B10B4688B10B4A022111700B4A56
:101FDC0010800B4A138001F075F90A4B186008BD8C
:101FEC00054B00221A70FFF79FFAF8E7024B01220B
:101FFC001A70FFF791FAF2E7960000201C010020FE
:10200C001E0100201401002008B5214B1B78022B67
:10201C0004D0204B1B78022B1DD008BD1E4B18681A
:10202C0001F06CF90028F4D0FFF76EFA48B9FFF70D
:10203C005BFA01F047F9194B1B881844164B1860D2
:10204C00E7E7FFF759FA01F03DF9154B1B881844E7
:10205C00114B1860DDE7134B186801F04FF900289D
:10206C00DBD0FFF769FA48B9FFF73EFA01F02AF91D
:10207C000D4B1B8818440B4B1860CEE7FFF73CFA4E
:10208C0001F020F9094B1B881844064B1860C4E773
:10209C000A000020960000201801002020010020DA
:1020AC0010010020140100201E0100201C01002042
:1020BC0070B54B4801F074F9FFF746FA01F002F9DC
:1020CC000446484B1B7833B94FF47A71204601F023
:1020DC000BF90028F5D1434B1B7803F0FF05002BBF
:1020EC0068D0204601F0FAF801463F4801F058F953
:1020FC0001F0E8F80446FFF737FA3A4B1B7833B196
:10210C004FF47A71204601F0EFF80028F5D1354BE9
:10211C001B7803F0FF05002B51D1204601F0DEF8AF
:10212C000146324801F03CF9FFF73CFA18B1304B4C
:10213C001B78002BF8D043F6982000F095FE2C4B22
:10214C001B7803F0FF06002B3ED101F0BBF80446D0
:10215C00FFF712FA234B1B7833B94FF47A712046F0
:10216C0001F0C2F80028F5D11E4B1B7803F0FF05D7
:10217C006BB3204601F0B2F801461E4801F010F98D
:10218C0001F0A0F80446FFF7E7F9164B1B7833B1C2
:10219C004FF47A71204601F0A7F80028F5D1114BC5
:1021AC001B78C3B9204601F099F80146124801F09A
:1021BC00F7F802E0112000F0F9FE284670BD12205D
:1021CC0000F0F4FE0025F8E7FFF7C6F9F5E7132059
:1021DC0000F0ECFEF1E7102000F0E8FE3546ECE7ED
:1021EC00784D000897000020844D0008A04D000891
:1021FC00A7000020B44D0008C84D000838B501F008
:10220C0061F80446FFF7A0F9154B1B7833B94FF46E
:10221C007A71204601F068F80028F5D1104B1B7834
:10222C0003F0FF05B3B1FFF79FF901F04BF804463B
:10223C000B4B1B7833B14FF47A71204601F054F8F4
:10224C000028F5D1064B1B783BB1122000F0AEFEF6
:10225C00002502E0112000F0A9FE284638BD00BF81
:10226C009700002038B501F02DF80446FFF784F9EB
:10227C00154B1B7833B94FF47A71204601F034F8C2
:10228C000028F5D1104B1B7803F0FF05B3B101F01A
:10229C0019F80446FFF760F90B4B1B7833B14FF478
:1022AC007A71204601F020F80028F5D1064B1B78F6
:1022BC003BB1102000F07AFE002502E0132000F064
:1022CC0075FE284638BD00BF9700002010B50446A7
:1022DC00FFF768F910B90123184610BDFFF78EFF00
:1022EC0003460028F8D0FFF75DF918B1084B1B78AE
:1022FC00002BF8D0204600F0B7FD054B1B781BB91E
:10230C00FFF7B0FF0346E7E7FFF7ACFF0023E3E777
:10231C00A700002010B50446FFF770FF034678B104
:10232C00FFF740F918B1094B1B78002BF8D0204669
:10233C0000F09AFD054B1B7823B9FFF793FF03467A
:10234C00184610BDFFF78EFF0023F9E7A700002009
:10235C0008B5074B186800F0C1FF0838042802D8EC
:10236C00044B01221A7000F0ADFF014B186008BD40
:10237C00980000209700002008B5074B1B7803B984
:10238C0008BD0D21054B186800F0AEFF0028F7D1F1
:10239C00014B00221A70F3E79700002098000020F0
:1023AC002DE9F041734800F0FBFF734B1B78002BB9
:1023BC0040D103F0FF04FFF7F5F80546002840D0A4
:1023CC006E4E318889006E4D85FB013189110831C3
:1023DC00C9B26C4800F0E4FF33889B0085FB0323F3
:1023EC009B110833DBB2092B30D94EF6602000F07C
:1023FC003BFD654B1B780BBB00F064FF07464FF6AB
:10240C00FF7600254EF66021384600F06DFF04463D
:10241C0000B35A4B1B889BB2AB4202D9574B1D8859
:10242C00ADB2564B1B889BB2B342EBD2534B1E88BA
:10243C00B6B2E7E7554800F0B3FF00242046BDE8EC
:10244C00F081534800F0ACFF2C46F7E7312000F048
:10245C00ADFDF3E74C4B1B7803F0FF08002BEDD1DF
:10246C00AA1B4C4BA3F805202F46324629464A4856
:10247C0000F096FF494B01221A70FFF785F800F027
:10248C0021FF05463C4B1B7833B940F6B831284642
:10249C0000F02AFF0028F5D13B4B1B7803F0FF0618
:1024AC00002B4BD1344B1B7803F0FF04002B4CD08A
:1024BC00284600F013FF0146394800F071FF00F088
:1024CC0001FF80462D4B1B889BB207F12A05AB42BE
:1024DC0005DA3449404600F007FF0028F2D12A4BB8
:1024EC001B7803F0FF07002B33D1244B1B889BB2C6
:1024FC009D4235DC404600F0F1FE01462A4800F0D2
:10250C004FFFFFF747F800F0DDFE05461A4B1B782E
:10251C0033B140F6B831284600F0E6FE0028F5D17C
:10252C00154B1B780BBB1D4B00221A70284600F074
:10253C00D5FE01461D4800F033FF7FE7FFF72AF870
:10254C00164B00221A70444678E7332000F02EFD1B
:10255C0074E7FFF71FF8114B00221A7034466DE731
:10256C00322000F023FD3C4668E7342000F01EFDCD
:10257C003C4663E7F04D0008A40000202201002037
:10258C00EB5DF2604C4E0008A70000200C4E0008DA
:10259C002C4E0008C8000020584E00089E00002059
:1025AC006C4E0008F0490200844E0008944E00085E
:1025BC0008B513280DD95A2812D80838A92303FBBB
:1025CC0000F0002811DBC0F38F00094B18800120AC
:1025DC0008BDFEF7DFFF064B00221A800120F7E74B
:1025EC00362000F0E3FC0020F2E70330EBE700BFFD
:1025FC009C000020044B18888000044B83FB0030A7
:10260C0080110830C0B2704722010020EB5DF260EF
:10261C0008B5124B1B78BBB9114B1B889BB2A3B1ED
:10262C00104B1A8892B20E4B1B889BB29A420FD257
:10263C000C4B1A8892B20A4B1B882A3B0A49B1F8F8
:10264C0005105B1A9A4206DB08BDFEF7A3FFFBE7F9
:10265C00FEF7A0FFF8E7FEF797FFF5E79E000020D6
:10266C009C00002022010020C800002008B5074B68
:10267C001B7803B908BD0D21054B186800F034FE1A
:10268C000028F7D1014B00221A70F3E7A4000020B8
:10269C00A000002008B5054B1880B0F5616F00D87C
:1026AC0008BD302000F082FCFAE700BF22010020B8
:1026BC0008B5044B01221A70FEF76CFF024B002286
:1026CC001A8008BD9E0000209C0000200E4B19684B
:1026DC000E4B99420DD04A1C0D4B9B8913F0800F69
:1026EC0009D00C4B1B689342FBD00870064B1A6048
:1026FC007047094AF0E780B2054B98809A8942F0FE
:10270C0080029A81704700BF100000202302002035
:10271C00003801400C0000202401002008B5AB203B
:10272C00FFF7D4FF0020FFF7D1FFCD20FFF7CEFF3E
:10273C0008BD0000054B9B8913F0800FFAD1034BA9
:10274C001B8813F0400FFAD0704700BF00380140CF
:10275C00002303E0400849080133DBB2072B08D8FB
:10276C0080EA010212F0010FF4D0400880F08C00D6
:10277C00F1E7704738B5424B1B8813F0800F0ED031
:10278C00404B1B68404A1268934223D05A1C3D4967
:10279C000A601B783A498B803C4B9A4222D0384BCA
:1027AC001B8813F0100F04D0354B9B88384B00223C
:1027BC001A70334B1B8813F0200F2DD0304B9C8894
:1027CC00E4B2334B1B78DBB2032B25D8DFE803F0E4
:1027DC000E1429422A4A93899BB223F080039BB2A0
:1027EC009381DCE7274B2B4A1A60D8E7AB2C13D12B
:1027FC00274B01221A700FE021468F20FFF7A8FF0C
:10280C00254B1870254B1C701B7833B1204B0222C2
:10281C001A70234B00221A7038BD1D4B03221A70FC
:10282C00F7E71D4D28782146FFF792FF28701C4AC8
:10283C001378DBB2591CC9B211701A49CC541278F6
:10284C00D2B2164B1B78DBB29A42E5D1104B032265
:10285C001A70E1E7104B1B78DBB2A34203D00C4B90
:10286C0000221A70D8E70D4B1B7813B9FFF756FFEF
:10287C00F5E70A4B19780B4800F082FAEFE700BF36
:10288C00003801400C000020100000202402002021
:10289C00A600002024010020A50000202502002015
:1028AC002F0300202802002038B504460D46AB202B
:1028BC00FFF70CFF0120FFF709FF2C432146932063
:1028CC00FFF746FF05462046FFF700FF2846FFF7B7
:1028DC00FDFE38BD2DE9F041054688461746AB2074
:1028EC00FFF7F4FE7C1CE4B221468F20FFF730FF8B
:1028FC0006462046FFF7EAFE29463046FFF728FF3A
:10290C0006462846FFF7E2FE00240AE018F80450B9
:10291C0029463046FFF71CFF06462846FFF7D6FE31
:10292C000134A742F2DC3046FFF7D0FEBDE8F0815F
:10293C002DE9F0418846FD2A17DC1746AB20FFF73E
:10294C00C5FE7C1CE4B221468F20FFF701FF054633
:10295C002046FFF7BBFE58212846FFF7F9FE064636
:10296C005820FFF7B3FE00240EE0FD27E6E718F928
:10297C000450EDB229463046FFF7EAFE06462846DB
:10298C00FFF7A4FE0134E4B2BC42F0DB3046FFF7A3
:10299C009DFE3846BDE8F08138B50446AB20FFF704
:1029AC0095FE0220FFF792FE5E20FFF78FFE214678
:1029BC006220FFF7CDFE05462046FFF787FE28462E
:1029CC00FFF784FE38BD70B505460C46AB20FFF70B
:1029DC007DFE0320FFF77AFE5E20FFF777FE294687
:1029EC00A620FFF7B5FE06462846FFF76FFE2146E8
:1029FC003046FFF7ADFE05462046FFF767FE28463A
:102A0C00FFF764FE70BD38B50446AB20FFF75EFEE1
:102A1C000220FFF75BFE5B20FFF758FE21465D208E
:102A2C00FFF796FE05462046FFF750FE2846FFF7B7
:102A3C004DFE38BD38B501280CD010B1022812D08B
:102A4C0038BD0F4C00232370642000F0F7F90123EC
:102A5C002370F5E70B4C00232370642000F0EEF993
:102A6C0001232370ECE7064D00232B70054C2370DB
:102A7C00642000F0E3F901232B702370E0E700BF22
:102A8C000800002009000020012807D010B10228FE
:102A9C0008D07047064B02221A707047054B022271
:102AAC001A7070470223024A1370024A137070475F
:102ABC000800002009000020F8B5FEF773FD00287F
:102ACC0055D10546544800F06BFC00F0FBFB044666
:102ADC000020FFF7AFFFFEF765FD40B94F492046D8
:102AEC0000F002FC18B14E4B1B78002BF3D04C4B72
:102AFC001B7803F0FF06002B3FD14849204600F01D
:102B0C00F3FB054600283CD0204600F0E7FB0146CD
:102B1C00444BC3F80700444800F042FC00F0D2FBE1
:102B2C000446FEF747FD68B93E4BD3F8073003EB7C
:102B3C0083035900204600F0D7FB18B1384B1B78A3
:102B4C00002BEED00020FFF79FFF364BD3F8073059
:102B5C0003EB83035900204600F0C6FB0546B0B1D9
:102B6C002F4B1B7803F0FF07ABB1354603E02F4822
:102B7C0000F016FC00252846F8BD0020FFF784FF66
:102B8C00F9E7FFF781FF612000F010FAF3E722204C
:102B9C0000F00CFAEFE7204600F0A0FB0146214BB9
:102BAC00C3F80B00224800F0FBFB47F23050FFF754
:102BBC00B1FB05460028DED01E4800F0F1FB0120D9
:102BCC00FFF738FF00F07EFB0446FEF7EBFC40B944
:102BDC001249204600F088FB18B1114B1B78002BD2
:102BEC00F3D00120FFF750FF0C49204600F07CFB8E
:102BFC00054620B10A4B1B782BB13D46BBE7622042
:102C0C0000F0D4F9B7E7204600F068FB01460A480B
:102C1C0000F0C6FBAFE700BFDC4E0008F049020035
:102C2C00A7000020C8000020084F0008C04E000874
:102C3C00344F0008984F0008B44F0008F8B5074609
:102C4C000E4643F69820FFF741FB054608B9284687
:102C5C00F8BD3846FFF7EEFE00F034FB0446FEF7F5
:102C6C00A1FC68B9244BD3F8071001F56A5118314F
:102C7C00204600F039FB18B1204B1B78002BEED00E
:102C8C00FEF790FC054630B31C4B1B7803F0FF0598
:102C9C0043BB194BD3F80B3003FB06F6184BA3FBC5
:102CAC0006367609FEF786FC40B93146204600F020
:102CBC001BFB18B1114B1B78002BF3D0314620466F
:102CCC0000F012FB98B93846FFF7DEFE0B4B1D786F
:102CDC0085F00105BBE7632000F068F93846FFF783
:102CEC00D3FEB4E73846FFF7CFFE0025AFE724202C
:102CFC0000F05CF9ABE700BFC8000020A700002083
:102D0C001F85EB51B0B500AF72B6174B4FF0FF32C9
:102D1C00C3F88020C3F88420C3F88820C3F880212E
:102D2C00C3F88421C3F88821104B114A1A6145F667
:102D3C007D62DA6000221A61DA60DA619A610D490B
:102D4C000A608A605A60094B5B6813F00C0FFAD169
:102D5C00094B1D68094C00212046FDF7DBF923685F
:102D6C0083F30888A847B0BD00E100E000100240E2
:102D7C003FC87E3E10E000E004F0FF1F00F0FF1F94
:102D8C0070B504460078431E092B40D8DFE803F0E9
:102D9C0005252D3F3F3F3F3F3F354D1EEDB2B9B1AD
:102DAC00072D00D907251C4E0722FF21304600F0C5
:102DBC00EFFA2A46611C304600F0DFFA174A137806
:102DCC0043F01003137000210120FFF76DFD0BE0A1
:102DDC0080210120FFF768FD06E0114B01221A70DB
:102DEC0000210220FFF760FD70BD00F043FA0B22BA
:102DFC0001460320FFF76EFDF6E700210A20FFF7DE
:102E0C0053FD064A137843F08A031370ECE7402114
:102E1C00FFF74AFDE8E700BF28030020240200204A
:102E2C00A700002082B000EBC0000190019B5A1E4D
:102E3C000192002BFAD102B07047000010B582B09D
:102E4C00044601A800F044FA03E0064B4AF6AA2215
:102E5C001A602146019800F047FA0028F5D102B01B
:102E6C0010BD00BF0030004010B582B0044601A870
:102E7C0000F02EFA03E0074B4AF6AA221A6021460C
:102E8C00019800F031FA18B1034B1B78002BF2D0EB
:102E9C0002B010BD00300040A700002010B584B077
:102EAC001A4BAB221A70002422460FE05208490834
:102EBC000133DBB2072B08D882EA010010F0010FB6
:102ECC00F4D0520882F08C02F1E701340E2C03D8B6
:102EDC000E4BE15C0023EDE70C48C2731021FEF7AA
:102EEC00E9F968B110216846FEF756F910226946D7
:102EFC00064800F033FA30B1722000F057F802E0C7
:102F0C00732000F053F804B010BD00BFC8000020BF
:102F1C00024B0A22DA7000221A717047C800002096
:102F2C0010B5214C10212046FEF736F92378AB2B37
:102F3C0002D10024224617E0702000F049F8FFF778
:102F4C00E7FFFFF7ABFF10BD520849080133DBB2B6
:102F5C00072B08D882EA010010F0010FF4D05208B8
:102F6C0082F08C02F1E701340F2C03D80E4BE15C9C
:102F7C000023EDE782B90C4BB3F803300A3B9BB24C
:102F8C004FF6F4729342DED9712000F021F8FFF76E
:102F9C00BFFFFFF783FFD6E7712000F019F8FFF7AA
:102FAC00B7FFFFF77BFFCEE7C800002010B5044643
:102FBC00FFF77EFBFEF706FBFEF732FF024B1C70A1
:102FCC00024B01221A7010BDA8000020A70000209F
:102FDC0008B5FFF718FD08BD08B50520FFF7E6FF9B
:102FEC0008BD08B50620FFF7E1FF08BD08B50720AE
:102FFC00FFF7DCFF08BD08B50820FFF7D7FF08BDB9
:10300C0008B51E48FEF780FF1D49FDF779F808B199
:10301C00002008BD1B48FEF777FF1B49FDF770F831
:10302C0030B11A48FEF770FF1549FDF769F808BB77
:10303C001748FEF769FF1749FDF762F830B11648DB
:10304C00FEF762FF0E49FDF75BF8A8B91348FEF7CF
:10305C005BFF1349FDF754F808B90120D9E7114873
:10306C00FEF752FF0649FDF74BF808B90120D0E7EF
:10307C000020CEE70020CCE70020CAE70050000873
:10308C00045000080850000814500008285000088C
:10309C003C50000848500008545000086450000888
:1030AC00705000088450000808B5FEF7CFFEFFF7FB
:1030BC00A7FFFEF7EDFE08BD38B5174B1C78E4B240
:1030CC00132C00D938BD21461020FFF77CFC20467C
:1030DC0000F0DAF8114B00221A70114B53F82450FF
:1030EC000D4B18681A79597942EA0122997942EA0A
:1030FC000141A84750B121461120FFF764FCFF2085
:10310C0000F0C2F8002000F0C5F8DBE721461220E1
:10311C00FFF759FCF3E700BF28030020A7000020AD
:10312C00A450000808B5FF2000F0AEF864214FF45D
:10313C006170FEF721FF0120FFF72EFC274B1B7857
:10314C0083B164210020FEF717FF64210020FEF7F5
:10315C0037FF224B1878FFF756FC214B4AF6AA2270
:10316C001A60FAE7FFF7DCFE4FF4FA710846FEF737
:10317C0003FFFFF799FF00216420FEF7FDFE642199
:10318C000020FEF71DFF0CE0FFF73DFC154B1978F6
:10319C00154800F005F9FEE7144B1B7813F0100FDF
:1031AC0014D10F4B4AF6AA221A600E4B187800283D
:1031BC00EAD10E4B1B7813F08A0FEDD08A20FFF763
:1031CC00EBFBFFF7B7FAFFF79DFDE5E7FFF774FFA1
:1031DC00064A137803F0EF031370E2E7C0000020F7
:1031EC0000300040A8000020985000082402002065
:1031FC000023024A1360024A13607047B00000209B
:10320C00AC00002030B4184BB3F801300C1A03EBAF
:10321C000425164A116821441160116847F6E172C1
:10322C00914201DD114B1A60104A1268002A14DB1E
:10323C000E4A126802EBC20293002B440C490A6836
:10324C00821A0860B3EB82100BD4B0F5004F01DD8D
:10325C004FF4004000B230BC7047044B00221A609F
:10326C00E6E70020F6E700BFC8000020B000002011
:10327C00AC00002008B5FFF7BDF9024B987018465A
:10328C0008BD00BF30030020014B1870704700BF11
:10329C0030030020014B5870704700BF30030020F2
:1032AC0008B5074A136801331360FEF7EDF9FFF711
:1032BC0063F8FEF7A1FDFFF7D9F9FEF7A5FE08BDEF
:1032CC00B4000020014B1868704700BFB400002008
:1032DC00014B1B6803607047B4000020014B1B6856
:1032EC00181A7047B400002010B50C46FFF7F6FF13
:1032FC00A0422CBF0020012010BD0000044B1B6815
:10330C00C01AB0F1004F94BF00200120704700BFDD
:10331C00B400002070B500250C4E0D4CA41BA4105D
:10332C00A54209D1FCF73FFF00250A4E0A4CA41B0D
:10333C00A410A54205D170BD56F82530984701352B
:10334C00EEE756F8253098470135F2E78C51000826
:10335C008C5100088C5100088C51000830B50024A9
:10336C00A24201D1002007E0035D01340D1915F8CC
:10337C00015CAB42F4D0581B30BD10B5431E0A445F
:10338C00914200D110BD11F8014B03F8014FF7E742
:10339C0003460244934200D1704703F8011BF9E73E
:1033AC000FB40A4B13B51C6824B1A36913B920469A
:1033BC0000F04EF805AB049AA1682046019300F08A
:1033CC009FF902B0BDE8104004B070471400002013
:1033DC00002310B50446C0E9003383608181436645
:1033EC00C281C0E904338361194608225C30FFF7BF
:1033FC00CFFF054B24626362044BA362044BE36270
:10340C00044B236310BD00BF693C00088B3C0008D3
:10341C00C33C0008E73C0008014900F085B800BF38
:10342C00C13F000870B568254A1E55430E4605F18C
:10343C00740100F0E3F8044640B10021C0E9001625
:10344C000C30A06005F16802FFF7A2FF204670BDAA
:10345C00836910B5044633BBC0E912330365124BC4
:10346C00124A1B688262984204BF0123836100F0F8
:10347C001FF86060204600F01BF8A060204600F0AA
:10348C0017F80022E06004216068FFF7A1FF012219
:10349C000921A068FFF79CFF02221221E068FFF7C8
:1034AC0097FF0123A36110BD545100082534000877
:1034BC00F8B51B4B07461E68B36913B93046FFF7C6
:1034CC00C7FF4836D6E90134013B03D5336833B125
:1034DC003668F7E7B4F90C506DB16834F4E70421A1
:1034EC003846FFF79FFF30600028F1D10C230446CB
:1034FC003B602046F8BD0B4B6566C4E90055A560E2
:10350C00C4E90335C4E905550822294604F15C00D9
:10351C00FFF73EFFC4E90D55C4E91255E9E700BFBA
:10352C00545100080100FFFF2DE9F84380468946FD
:10353C00002600F1480414B93046BDE8F883D4E9FC
:10354C000175013F01D52468F5E7AB89012B07D93B
:10355C00B5F90E30013303D029464046C84706431F
:10356C006835EEE738B50546002943D051F8043CE0
:10357C000C1F002BB8BFE41800F0CAFD1E4A1368DC
:10358C00104633B9636014602846BDE8384000F03B
:10359C00C0BDA3420BD921686218934201BF1A68BF
:1035AC005B685218226063600460EDE713465A684A
:1035BC000AB1A242FAD919685818A0420BD1206856
:1035CC000144581882421960DED1106852680144D7
:1035DC0019605A60D8E702D90C232B60D4E7206815
:1035EC0021188A4201BF1168526809182160626073
:1035FC005C60C9E738BD00BFB800002070B5CD1CB9
:10360C0025F0030508350C2D38BF0C25002D06467A
:10361C0001DBA94203D90C233360002070BD00F0FC
:10362C0077FD214A1468214691B9204C23681BB9B7
:10363C00304600F003FB20602946304600F0FEFACD
:10364C00431C24D10C233046336000F062FDE4E7C8
:10365C000B685B1B18D40B2B0FD90B60CC18CD50FF
:10366C00304600F056FD04F10B00231D20F007003E
:10367C00C31AD3D05A42E250D0E74B688C4216BFE3
:10368C00636013600C46EBE70C464968CCE7C41C3E
:10369C0024F00304A04205D0211A304600F0CEFAE3
:1036AC000130CFD02560DBE7B8000020BC00002043
:1036BC00936810B4013B002B936007DA9469A34222
:1036CC0001DB0A2902D110BC00F00CBB1368581C9A
:1036DC0010601970084610BC7047F8B506460F46C6
:1036EC001446D518AC4201D1002007E03A4614F834
:1036FC00011B3046FFF7DCFF431CF3D1F8BD000083
:10370C002DE9F04F0C469DB017461D46064618B1E4
:10371C0083690BB9FFF79CFE7C4B9C4258D17468B3
:10372C00A38918075ED52369002B5BD0002309936E
:10373C0020238DF8293030234FF0010B8DF82A30DF
:10374C000395B846454615F8013B0BB1252B54D1D2
:10375C00B8EB070A0BD053463A4621463046FFF7E2
:10376C00BCFF013000F0C280099B5344099398F8C8
:10377C000030002B00F0BA8000234FF0FF32CDE96F
:10378C000523049307938DF853301A93A84605220A
:10379C0018F8011B5E4800F0ADFC049B78BBD90601
:1037AC0044BF20228DF853201A0744BF2B228DF8DA
:1037BC0053202A782A2A2AD0A84600200A25079ABC
:1037CC00414611F8013B303B092B69D960B324E029
:1037DC00504B9C4201D1B468A2E74F4B9C4208BFAE
:1037EC00F4689DE72146304600F0E0FA00289DD0B1
:1037FC004FF0FF301DB0BDE8F08FA846A2E7444A59
:10380C004546801A0BFA00F018430490BEE7039A61
:10381C00111D12680391002A01DB079204E0524249
:10382C0043F002030792049398F800302E2B0ED12C
:10383C0098F801302A2B38D1039B08F102081A1D85
:10384C001B680392002BB8BF4FF0FF330593334D29
:10385C00032298F80010284600F04CFC40B140239D
:10386C00401B03FA00F0049B08F101080343049386
:10387C0098F8001006222A4808F101078DF8281044
:10388C0000F038FC002837D0264B1BBB039B0733BA
:10389C0023F0070308330393099B4B44099350E728
:1038AC0005FB0232012088468AE700230A251946C7
:1038BC0008F101080593404610F8012B303A092A0B
:1038CC0003D9002BC3D00591C1E705FB01210123CE
:1038DC008046F0E703AB00932246134B04A9304615
:1038EC00AFF30080B0F1FF3F8146D5D1A3895B06D1
:1038FC003FF57EAF09987DE703AB009322460A4B58
:10390C0004A9304600F088F8ECE700BF1451000819
:10391C005851000834510008F45000085E5100085A
:10392C006251000800000000E73600082DE9F0475E
:10393C0091461F468A680B6906469342B8BF1346E8
:10394C00C9F8003091F843200C46DDF8208012B104
:10395C000133C9F800302368990642BFD9F800300A
:10396C000233C9F80030256815F0060507D104F1BB
:10397C00190AE368D9F800209B1AAB4229DC94F8A9
:10398C0043302268003318BF012392062ED404F171
:10399C00430239463046C047013021D02368E568E0
:1039AC0003F00603042B18BF0025D9F800204FF0B4
:1039BC00000908BFAD1AA368226908BF25EAE5759E
:1039CC009342C4BF9B1AED181A344D451AD10020EE
:1039DC0008E00123524639463046C047013003D136
:1039EC004FF0FF30BDE8F0870135C2E73020E11819
:1039FC0081F843005A1C94F845102244023382F893
:103A0C004310C4E70123224639463046C0470130F3
:103A1C00E6D009F10109D8E72DE9F04301F1430C97
:103A2C000C46097E85B06E291746064698460C9AB8
:103A3C0000F0B38022D8632936D00AD8002900F0D0
:103A4C00B980582900F0838004F1420584F84210B3
:103A5C0032E0642901D06929F6D120681368050683
:103A6C0003F104012AD51B681160002B03DA2D2207
:103A7C005B4284F843206F480A2239E0732900F036
:103A8C009D8008D86F2920D07029DDD1236843F0A0
:103A9C002003236003E0752917D07829D4D178232B
:103AAC00654884F8453055E0136804F14205191D4A
:103ABC001B68116084F8423001238CE01B6810F005
:103ACC00400F116018BF1BB2CFE713682568181D93
:103ADC001060280601D51B6802E06806FBD51B8820
:103AEC006F2914BF0A2208225248002184F843107F
:103AFC006568002DA560C0F29580216821F0040155
:103B0C002160002B3DD1002D40F08E806546082AA7
:103B1C000BD12368DB0708D5236962689A42DEBFA4
:103B2C00302305F8013C05F1FF35ACEB05032361AF
:103B3C00CDF800803B4603AA21463046FFF7F6FE3F
:103B4C0001304DD14FF0FF3005B0BDE8F08339485E
:103B5C0084F84510136821681D1D1B6815600A0642
:103B6C000BD5CA0744BF41F0200121601BB9226864
:103B7C0022F0200222601022B7E74D0648BF9BB20C
:103B8C00EFE76546B3FBF2F102FB1133C35C05F8BA
:103B9C00013D0B460029F5D1B9E713682568181DBE
:103BAC006169106028061B6801D5196002E06A067D
:103BBC00FBD51980002365462361B9E71368191DED
:103BCC0011601D6862680021284600F093FA08B164
:103BDC00401B606063682361002384F84330A7E7CF
:103BEC0023692A4639463046C0470130AAD023689B
:103BFC009B0713D4E068039B9842B8BF1846A3E711
:103C0C0001234A4639463046C04701309AD0013527
:103C1C00E368039A9B1AAB42F2DCEBE7002504F154
:103C2C001909F5E7002BACD1037804F1420584F8AF
:103C3C0042306CE7695100087A51000838B500230E
:103C4C00054C054608462360FCF784FA431C02D158
:103C5C00236803B12B6038BD3C03002010B50C4623
:103C6C00B1F90E1000F056FA0028ABBF636DA389B2
:103C7C001B1823F48053ACBF6365A38110BD2DE9E1
:103C8C00F0411F468B890546DB050C46164605D5CB
:103C9C0002230022B1F90E1000F0B6F9A3893246C6
:103CAC0023F48053A381B4F90E103B462846BDE89B
:103CBC00F04100F069B810B50C46B1F90E1000F0E7
:103CCC00A3F9431CA38915BF606523F4805343F407
:103CDC008053A38118BFA38110BDB1F90E1000F061
:103CEC00D3B80000F8B50E461446054618B18369E2
:103CFC000BB9FFF7ADFB214B9C422AD16C68A36931
:103D0C00A360A3891A072ED5236963B3236920689E
:103D1C00F6B2C01A63693746834204DC2146284652
:103D2C0000F048F928BBA3680130013BA36023686D
:103D3C005A1C22601E706369834204D0A389DB077E
:103D4C0019D50A2E17D12146284600F033F990B127
:103D5C000FE00B4B9C4201D1AC68D0E7094B9C4265
:103D6C0008BFEC68CBE72146284600F01FF8002876
:103D7C00CCD04FF0FF373846F8BD00BF14510008C7
:103D8C0034510008F450000838B505460846114671
:103D9C000022054C22601A46FEF7CAFD431C02D1D4
:103DAC00236803B12B6038BD3C030020324B70B547
:103DBC001D6806460C4625B1AB6913B92846FFF7BA
:103DCC0047FB2E4B9C420FD16C68B4F90C309AB265
:103DDC0015072CD4D00611D40922326043F04003CD
:103DEC00A3814FF0FF303EE0254B9C4201D1AC68E3
:103DFC00EBE7244B9C4208BFEC68E6E7510712D571
:103E0C00616B41B104F14403994202D03046FFF793
:103E1C00A9FB00236363A38923F02403A38100235C
:103E2C00636023692360A38943F00803A38123699A
:103E3C004BB9A38903F42073B3F5007F03D021465B
:103E4C00304600F017F9A28912F001030CD00023C0
:103E5C00A36063695B42A361236953B9B4F90C3065
:103E6C0013F08000BAD170BD920758BF6369A3608C
:103E7C00F2E70020F7E700BF1400002014510008FF
:103E8C0034510008F450000838B50023054C0546A1
:103E9C0008462360FCF748F9431C02D1236803B1A0
:103EAC002B6038BD3C0300208A892DE9F041054682
:103EBC0010070C4658D44B68002B05DC0B6C002B00
:103ECC0002DC0020BDE8F081E66A002EF9D0002368
:103EDC0012F480522F68216A2B6032D0606DA38956
:103EEC005A0705D56368C01A636B0BB1236CC01AF3
:103EFC0000230246E66A216A2846B047431CA38980
:103F0C0006D129681D2948D8294ACA40D60744D564
:103F1C00002262602269D904226004D5421C01D1BE
:103F2C002B6803B96065616B2F600029C9D004F15F
:103F3C004403994202D02846FFF714FB002060632B
:103F4C00C0E701232846B047411CC8D12B68002B81
:103F5C00C5D01D2B01D0162B01D12F60B1E7A38941
:103F6C0043F04003A381ADE70F69002FA9D093075D
:103F7C0018BF00230E6808BF4B69A6EB07080F603B
:103F8C008B60B8F1000F9CDD43463A46216A284607
:103F9C00A66AB047002806DCA38943F04003A3813E
:103FAC004FF0FF308EE70744A8EB0008E9E700BFAD
:103FBC000100402038B50B6905460C46DBB118B141
:103FCC0083690BB9FFF744FA0C4B9C4209D16C681E
:103FDC00B4F90C307BB121462846BDE83840FFF7D8
:103FEC0063BF074B9C4201D1AC68F1E7054B9C4287
:103FFC0008BFEC68ECE7002038BD00BF1451000886
:10400C0034510008F450000838B5054608461146EE
:10401C000022054C22601A46FCF79AF8431C02D188
:10402C00236803B12B6038BD3C03002070B50E46ED
:10403C00B1F90E1096B0002914461D4607DA00237C
:10404C002B60B3891A0610D44FF480630EE06A46D5
:10405C0000F072F80028F2DB019A02F47042A2F52B
:10406C0000535A425A412A60EEE740230020236055
:10407C0016B070BD8B8973B59D0706460C4607D5E7
:10408C0004F14703236023610123636102B070BD17
:10409C0001AB6A46FFF7CAFF009905463046FFF7A9
:1040AC00ADFA48B9B4F90C309A05EFD423F00303F8
:1040BC0043F00203A381E3E70D4BB362A3892060B5
:1040CC0043F08003A381009B20616361019B5BB182
:1040DC00B4F90E10304600F041F828B1A38923F052
:1040EC00030343F00103A381A3891D43A581CDE7FD
:1040FC002534000810B5C9B202449042034601D1E0
:10410C00002303E01C7801308C42F6D1184610BD18
:10411C007047704738B50546084611460022054CD5
:10412C0022601A46FCF73CF8431C02D1236803B109
:10413C002B6038BD3C03002038B50023064C0546E7
:10414C00084611462360FBF7F2FF431C02D123689B
:10415C0003B12B6038BD00BF3C03002038B50023F1
:10416C00054C054608462360FBF7E6FF431C02D1CD
:0C417C00236803B12B6038BD3C03002019
:104188004865617020616E6420737461636B20639D
:104198006F6C6C6973696F6E0A000000436C6F7313
:1041A8006520646F6F720A0052696E73696E670AE0
:1041B800000000005370696E6E696E670A000000A7
:1041C8004F70656E20646F6F720A0000416C6C203E
:1041D8007465737473204F4B0A0000007472756520
:1041E8000000000066616C73650000005761736829
:1041F800206E756D6265722031202D2031310A00E4
:10420800546D6178203D2038300A00004D617820D7
:104218007370696E6E696E67203D2032300A000047
:1042280053746172742077617368696E6720617472
:1042380020743A2025752C2074696D653A202575FF
:104248002C207370696E6E696E6720737065656483
:104258003A2025752C207761746572206C65766527
:104268006C3A2025752C2072696E73696E6720631D
:1042780079636C65733A2025752C207072657761B7
:1042880073683A2025730A004689030A4678030AA8
:104298003C69030A2848030A1E3C030A3C4D0303F1
:1042A80032490303283A03031E1E03032832010080
:1042B8001E2D010053746172742077617465722039
:1042C80068656174657220617420743A2025752CC4
:1042D800207761746572206C6576656C3A20257567
:1042E8000A000000542025750A000000446F6F7210
:1042F800206C6F636B20746573740A436865636B25
:1043080020666565646261636B2E2E2E0A000000CC
:1043180046756C6C20666565646261636B207072BB
:104328006573656E7420617420256C75206D730A41
:10433800000000004C6F636B206665656462616312
:104348006B2070726573656E7420617420256C75BE
:10435800206D730A5761697420746F20636C6F73E2
:10436800652E2E2E0A000000446F6F72206C6F635A
:104378006B20617420256C75206D730A446F6F7211
:10438800206C6F636B2074657374204F4B0A0000B8
:10439800446F6F7220756E6C6F636B2074657374F5
:1043A8000A436865636B20666565646261636B2EAA
:1043B8002E2E0A00416C7265616479206F70656EFB
:1043C80065640A00466565646261636B20707265A6
:1043D80073656E7420617420256C750A5761697461
:1043E80020746F206F70656E2E2E2E0A000000005C
:1043F800446F6F7220756E6C6F636B20617420253B
:104408006C750A446F6F7220756E6C6F636B2074E5
:10441800657374204F4B0A005465737420656E678A
:10442800696E650A436865636B2068616C6620661F
:104438006565646261636B0A00000000456E676928
:104448006E652074657374206E65656420636C6F97
:1044580073656420646F6F720A00000048616C66BF
:1044680020666565646261636B204F4B0A4368652B
:10447800636B2072656C61790A00000052656C619B
:104488007920666565646261636B20707265736527
:104498006E7420617420256C75206D730A436865FD
:1044A800636B20746163686F206E6F6973652E2E6D
:1044B8002E0A0000546163686F206E6F697365206F
:1044C8006C6576656C2025750A576169742073746C
:1044D80061727420726F746174696E672E2E2E0A71
:1044E8000000000053746172742061742076616C5E
:1044F80075652025750A0000436865636B20726541
:104508006C61792064697361626C652066656564B5
:104518006261636B0A00000044697361626C652024
:10452800666565646261636B2070726573656E743D
:1045380020617420256C75206D730A436865636B70
:10454800205049440A00000054616B652031302036
:1045580070706D20617420256C75206D730A546528
:10456800737420656E67696E65204F4B0A00000002
:10457800007D837A7B79B07805786F77E7766976FE
:10458800F57587751F75BC745E740374AC735873C6
:104598000673B7726B722072D77190714B71077185
:1045A800C470837043700570C76F8B6F4F6F156F42
:1045B800DB6EA26E6B6E336EFD6DC76D926D5E6DB8
:1045C8002A6DF76CC56C936C626C316C016CD16BA5
:1045D800A26B736B446B176BE96ABC6A8F6A636A78
:1045E800376A0B6AE069B5698B69616937690D6972
:1045F800E468BB6892686A6842681A68F367CB67C0
:10460800A4677D67576731670B67E566BF669A667B
:10461800756650662B660666E265BE659A657665C0
:1046280052652F650C65E964C664A36481645E64A1
:104638003C641A64F863D663B56393637263516329
:1046480030630F63EE62CE62AD628D626D624D6261
:104658002D620D62ED61CE61AE618F617061516155
:1046680032611361F460D560B76098607A605C600D
:104678003E6020600260E45FC65FA95F8B5F6E5F8B
:10468800505F335F165FF95EDC5EBF5EA25E855EDB
:10469800695E4C5E305E135EF75DDB5DBE5DA25DFC
:1046A800865D6A5D4E5D335D175DFB5CE05CC45CF6
:1046B800A95C8D5C725C575C3C5C215C065CEB5BC6
:1046C800D05BB55B9A5B805B655B4A5B305B155B77
:1046D800FB5AE15AC65AAC5A925A785A5E5A445A08
:1046E8002A5A105AF659DC59C359A9598F5976597B
:1046F8005C59435929591059F758DE58C458AB58D2
:1047080092587958605847582E581558FC57E4570E
:10471800CB57B257995781576857505737571F5734
:104728000657EE56D656BD56A5568D5675565D5645
:1047380045562D561556FD55E555CD55B5559D553E
:1047480085556E5556553E5527550F55F754E05427
:10475800C854B154995482546B5453543C542554FE
:104768000E54F653DF53C853B1539A5383536C53C3
:1047780055533E5327531053F952E252CC52B55277
:104788009E52875271525A5243522D521652FF511D
:10479800E951D251BC51A6518F51795162514C51B6
:1047A80036511F510951F350DD50C650B0509A5040
:1047B80084506E50585042502C5016500050EA4FBA
:1047C800D44FBE4FA84F924F7C4F664F504F3B4F30
:1047D800254F0F4FF94EE44ECE4EB84EA24E8D4E99
:1047E800774E624E4C4E364E214E0B4EF64DE04DF6
:1047F800CB4DB54DA04D8B4D754D604D4A4D354D4A
:10480800204D0B4DF54CE04CCB4CB54CA04C8B4C93
:10481800764C614C4B4C364C214C0C4CF74BE24BD4
:10482800CD4BB84BA34B8E4B794B644B4F4B3A4B0C
:10483800254B104BFB4AE64AD14ABC4AA74A934A41
:104848007E4A694A544A3F4A2A4A164A014AEC496A
:10485800D749C349AE499949854970495B49474990
:1048680032491D490949F448E048CB48B648A248AE
:104878008D487948644850483B4827481248FE47C5
:10488800E947D547C047AC47974783476F475A47DB
:10489800464731471D470947F446E046CC46B746E8
:1048A800A3468F467A46664652463E4629461546F0
:1048B8000146EC45D845C445B0459C4587457345F8
:1048C8005F454B45374522450E45FA44E644D244F8
:1048D800BE44A944954481446D44594445443144F7
:1048E8001D440944F443E043CC43B843A4439043F4
:1048F8007C436843544340432C4318430443F042E9
:10490800DC42C842B442A0428C42784264425042DF
:104918003C42284214420042EC41D841C441B041D3
:104928009C418841744160414C41384124411041C7
:10493800FD40E940D540C140AD40994085407140B7
:104948005D404940354021400D40FA3FE63FD23FA7
:10495800BE3FAA3F963F823F6E3F5A3F463F333F96
:104968001F3F0B3FF73EE33ECF3EBB3EA73E933E85
:10497800803E6C3E583E443E303E1C3E083EF43D70
:10498800E03DCC3DB93DA53D913D7D3D693D553D61
:10499800413D2D3D193D053DF23CDE3CCA3CB63C4F
:1049A800A23C8E3C7A3C663C523C3E3C2A3C163C3F
:1049B800023CEF3BDB3BC73BB33B9F3B8B3B773B2F
:1049C800633B4F3B3B3B273B133BFF3AEB3AD73A22
:1049D800C33AAF3A9B3A873A733A5F3A4B3A373A17
:1049E800233A0F3AFB39E739D339BF39AB3997390D
:1049F80083396F395B39473933391F390B39F63801
:104A0800E238CE38BA38A63892387E386A385638FE
:104A180041382D3819380538F137DD37C837B437FC
:104A2800A0378C37783763374F373B3727371337FB
:104A3800FE36EA36D636C136AD3699368536703604
:104A48005C36483633361F360B36F635E235CE350A
:104A5800B935A53590357C35683553353F352A3518
:104A680016350135ED34D834C434AF349B3486342C
:104A780072345D34493434341F340B34F633E23342
:104A8800CD33B833A4338F337A33663351333C3361
:104A980028331333FE32E932D532C032AB32963284
:104AA80081326C32583243322E3219320432EF31AD
:104AB800DA31C531B0319B31863171315C314731E2
:104AC80032311D310831F330DE30C930B4309E3018
:104AD800893074305F304A3034301F300A30F42F58
:104AE800DF2FCA2FB52F9F2F8A2F742F5F2F4A2FA2
:104AF800342F1F2F092FF42EDE2EC92EB32E9D2EF4
:104B0800882E722E5D2E472E312E1B2E062EF02D4E
:104B1800DA2DC42DAF2D992D832D6D2D572D412DB7
:104B28002B2D152DFF2CE92CD32CBD2CA72C912C2B
:104B38007B2C652C4F2C392C222C0C2CF62BE02BA3
:104B4800C92BB32B9D2B862B702B592B432B2D2B2D
:104B5800162B002BE92AD22ABC2AA52A8E2A782AC3
:104B6800612A4A2A332A1D2A062AEF29D829C12967
:104B7800AA2993297C2965294E2937292029092919
:104B8800F128DA28C328AC2894287D2866284E28DE
:104B980037281F280828F027D827C127A9279127B1
:104BA8007A2762274A2732271A270227EA26D22697
:104BB800BA26A2268A2672265A264226292611268F
:104BC800F925E025C825AF2597257E2566254D259D
:104BD80034251B250325EA24D124B8249F248624C0
:104BE8006D2454243B2421240824EF23D623BC23FA
:104BF800A3238923702356233C2323230923EF224D
:104C0800D522BB22A12287226D22532239221E22BD
:104C18000422EA21CF21B5219A217F2165214A2149
:104C28002F211421F920DE20C320A8208D207220F6
:104C380056203B201F200420E81FCC1FB11F951FC2
:104C4800791F5D1F411F241F081FEC1ECF1EB31EB6
:104C5800961E7A1E5D1E401E231E061EE91DCC1DD3
:104C6800AF1D911D741D561D391D1B1DFD1CDF1C1C
:104C7800C11CA31C851C671C481C2A1C0B1CEC1B94
:104C8800CD1BAE1B8F1B701B511B311B121BF21A45
:104C9800D21AB21A921A721A521A311A111AF01931
:104CA800CF19AE198D196C194A1929190719E51860
:104CB800C318A1187E185C1839181618F317D017DE
:104CC800AD178917651741171D17F916D416AF16B2
:104CD8008A16651640161A16F415CE15A8158215EB
:104CE8005B1534150C15E514BD1495146D14441496
:104CF8001B14F213C8139E1374134A131F13F412D0
:104D0800C8129C12701243121612E811BB118C11B2
:104D18005D112E11FE10CE109D106C103A10081067
:104D2800D50FA10F6D0F380F020FCC0E940E5D0E2C
:104D3800240EEA0DB00D740D380DFA0CBC0C7C0C69
:104D48003B0CF80BB40B6F0B280BDF0A940A480ACC
:104D5800F909A7095309FC08A1084308E0077807DF
:104D68000A07960618069005FA044F0484037C0285
:104D7800546573742070756D700A000050756D70FD
:104D88002072656C6179206F6E20617420256C75C6
:104D9800206D730A0000000050756D70206F6E2042
:104DA800617420256C75206D730A000050756D7054
:104DB800206F666620617420256C75206D730A006B
:104DC80050756D702072656C6179206F6666206120
:104DD8007420256C75206D730A5465737420707582
:104DE8006D70204F4B0A0000546573742074656D14
:104DF80070657261747572652073656E736F720A7F
:104E080000000000546573742074656D70657261EC
:104E180074757265206E656564206F6666206865C6
:104E280061740A00546573742074656D70657261ED
:104E380074757265206E6565642077617465720AA1
:104E480000000000576174657220742025750A00FF
:104E5800526D61782025752C20526D696E2025755C
:104E68000A00000052656C617920666565646261BC
:104E7800636B20617420256C750A000048656174B5
:104E880020617420256C750A0000000052656C6171
:104E980079206F666620666565646261636B206170
:104EA8007420256C750A546573742068656174658F
:104EB80072204F4B0A00000056616C7665207465BD
:104EC8007374206E656564206E6F207761746572F7
:104ED8000A00000054657374207072657761736806
:104EE8002076616C76650A4F70656E207072657702
:104EF8006173682076616C76652E2E2E0A0000009C
:104F0800507265776173682076616C7665206D6193
:104F18006B65206C6F776572206C6576656C206FA9
:104F28006E20256C75206D730A000000507265773D
:104F38006173682076616C7665206D616B652068A9
:104F48006967686572206C6576656C206F6E2025D0
:104F58006C75206D730A546573742070726577617F
:104F680073682076616C7665204F4B0A54657374BC
:104F780020636F6E646974696F6E65722076616C08
:104F880076652E2E2E0A53696E6B2E2E2E0A000081
:104F98004F70656E20636F6E646974696F6E6572B9
:104FA8002076616C76652E2E2E0A0000436F6E64A3
:104FB8006974696F6E65722076616C7665206D61C3
:104FC8006B652074616B65206C6F776572206C650A
:104FD80076656C206F6E20256C750A546573742095
:104FE800636F6E646974696F6E65722076616C7642
:104FF80065204F4B0A000000415400004F4B000051
:1050080041542B4E414D453F000000002B4E414D71
:10501800453A57415348303031205632000000009D
:1050280041542B4E414D453D574153483030312076
:105038005632000041542B505357443F00000000A3
:105048002B505357443A31323334000041542B50DB
:105058005357443D313233340000000041542B553E
:105068004152543F000000002B554152543A31310F
:10507800353230302C302C320000000041542B5592
:105088004152543D3131353230302C302C32000011
:105098004572726F722025580A0000004D0C0008F6
:1050A800F10C0008F10C0008F10C0008F10C0008E4
:1050B800F10C0008F10C0008F10C0008F10C0008D4
:1050C800F10C0008F10C0008F10C0008D90A0008DE
:1050D8003D0B0008E30B0008110C0008770B0008D3
:1050E800A70B0008450E0008B90A000800000000D8
:1050F80000000000000000000000000000000000A8
:105108000000000000000000000000000000000097
:105118000000000000000000000000000000000087
:105128000000000000000000000000000000000077
:105138000000000000000000000000000000000067
:10514800000000000000000000000000180000201F
:10515800232D302B2000686C4C0065666745464758
:1051680000303132333435363738394142434445DB
:10517800460030313233343536373839616263644A
:045188006566000058
:10518C0001000000FFFFFFFF0202010024010020CC
:10519C002401002018000020000000001451000819
:1051AC0034510008F450000800000000000000001A
:1051BC0000000000000000000000000000000000E3
:1051CC0000000000000000000000000000000000D3
:1051DC0000000000000000000000000000000000C3
:1051EC0000000000000000000000000000000000B3
:0851FC000000000000000000AB
:040000050800057971
:00000001FF
